:100000000C942A000C943F000C943F000C943F0089
:100010000C943F000C943F000C943F000C943F0064
:100020000C943F000C943F000C943F000C943F0054
:100030000C943F000C943F000C943F000C943F0044
:100040000C943F000C943F000C943F000C943F0034
:100050000C943F0011241FBECFE5D8E0DEBFCDBF1A
:1000600010E0A0E6B0E0E4E0F0E102C005900D92FF
:10007000A437B107D9F70E9467070C9400080C94C5
:1000800000008FEF8ABB87BB84BB80EF81BB1BBAAC
:1000900018BA15BA8FE082BB80E00895883010F05E
:1000A00083E00895813049F0813028F0823039F0C2
:1000B000833031F407C06ABB03C067BB01C064BBB7
:1000C00080E0089561BB80E00895883010F083E0FF
:1000D0000895813049F0813028F0823039F0833042
:1000E00031F407C06BBB03C068BB01C065BB80E0D7
:1000F000089562BB80E00895FB01883010F083E032
:1001000008956115710511F482E00895813049F078
:10011000813028F0823039F0833039F408C089B357
:1001200003C086B301C083B3808380E0089580B3A9
:10013000808380E00895883010F083E00895813056
:1001400059F0813028F0823059F0833061F40DC0CD
:100150008BB380958BBB07C088B3809588BB03C0E9
:1001600085B3809585BB80E0089582B3809582BB7E
:1001700080E00895843008F065C0683008F062C0FF
:10018000423008F05FC08130E9F0813030F08230D9
:1001900071F1833009F054C03FC08AB321E030E0F0
:1001A000062E02C0220F331F0A94E2F7209528235F
:1001B000842F90E002C0880F991F6A95E2F7282BE0
:1001C0002ABB3EC087B321E030E0062E02C0220FDA
:1001D000331F0A94E2F720952823842F90E002C071
:1001E000880F991F6A95E2F7282B27BB29C084B393
:1001F00021E030E0062E02C0220F331F0A94E2F7FE
:1002000020952823842F90E002C0880F991F6A95BB
:10021000E2F7282B24BB14C081B321E030E0062E86
:1002200002C0220F331F0A94E2F720952823842F5F
:1002300090E002C0880F991F6A95E2F7282B21BB36
:1002400080E0089583E00895843008F065C0683048
:1002500008F062C0423008F05FC08130E9F08130C0
:1002600030F0823071F1833009F054C03FC08BB35D
:1002700021E030E0062E02C0220F331F0A94E2F77D
:1002800020952823842F90E002C0880F991F6A953B
:10029000E2F7282B2BBB3EC088B321E030E0062ECE
:1002A00002C0220F331F0A94E2F720952823842FDF
:1002B00090E002C0880F991F6A95E2F7282B28BBAF
:1002C00029C085B321E030E0062E02C0220F331F83
:1002D0000A94E2F720952823842F90E002C0880F2B
:1002E000991F6A95E2F7282B25BB14C082B321E041
:1002F00030E0062E02C0220F331F0A94E2F7209549
:100300002823842F90E002C0880F991F6A95E2F796
:10031000282B22BB80E0089583E00895FA0141155F
:100320005105F1F08430E0F46830D0F4813049F0C8
:10033000813028F0823039F0833081F406C089B3EF
:1003400005C086B303C083B301C080B390E002C090
:10035000959587956A95E2F78170808380E008958E
:1003600083E00895843010F083E00895813091F0A7
:10037000813028F08230C9F0833009F522C02BB3D8
:1003800081E090E002C0880F991F6A95E2F7282764
:100390002BBB15C028B381E090E002C0880F991FE5
:1003A0006A95E2F7282728BB0AC025B381E090E0D0
:1003B00002C0880F991F6A95E2F7282725BB80E0C5
:1003C000089522B381E090E002C0880F991F6A95DA
:1003D000E2F7282722BB80E00895FB0120813181CC
:1003E000DB01A20FB31F12968C932F5F3F4F318317
:1003F000208308959C01DB01ED91FC9111973197C9
:100400001196FC93EE93E60FF71F8281F90180832A
:100410000895FC0120E030E08081918118161906D2
:1004200014F021E030E0C9010895FC0120E030E043
:1004300080819181449714F021E030E0C901089552
:10044000FC011182108208959C01DB01ED91FC9169
:100450001197E60FF71F8181F90180830895FC0150
:10046000808191810895FC01118210820895EF929C
:10047000FF920F931F93CF93DF93FC017B01C08109
:10048000D18121968C010C0F1D1F219707C0219748
:10049000F8018081F7010995015010401C161D06D6
:1004A000B4F3DF91CF911F910F91FF90EF900895DA
:1004B000683008F07BC0442321F0413009F076C059
:1004C0003EC08234C1F0833420F4813409F06EC020
:1004D00006C08334E1F0843409F068C024C02BB333
:1004E00081E090E002C0880F991F6A95E2F780953D
:1004F00082238BBB089528B381E090E002C0880F6F
:10050000991F6A95E2F78095822388BB089525B3E9
:1005100081E090E002C0880F991F6A95E2F780950C
:10052000822385BB089522B381E090E002C0880F4A
:10053000991F6A95E2F78095822382BB08958234E1
:10054000A9F0833418F4813489F505C08334C9F0E7
:10055000843461F521C02BB381E090E002C0880FA4
:10056000991F6A95E2F7282B2BBB089528B381E0E9
:1005700090E002C0880F991F6A95E2F7282B28BBEC
:10058000089525B381E090E002C0880F991F6A9515
:10059000E2F7282B25BB089522B381E090E002C04A
:1005A000880F991F6A95E2F7282B22BB08958234A1
:1005B00061F0833418F4813469F405C0833439F070
:1005C000843441F406C06BBB089568BB089565BBD5
:1005D000089562BB0895823469F0833418F481343D
:1005E00029F406C0833441F0843479F08FEF089504
:1005F00089B303C086B301C083B390E002C0959570
:1006000087956A95E2F78170089580B390E002C003
:10061000959587956A95E2F7817008950F931F93DA
:10062000CF93DF93C0E0D0E0FE01E05AFF4F10818E
:1006300084E4612F40E00E94580200E084E460E01E
:100640000E94EB02882319F4E0E0F0E01DC001E015
:1006500084E461E00E94EB02882319F4E1E0F0E019
:1006600013C002E084E462E00E94EB02882319F4E4
:10067000E2E0F0E009C003E084E463E00E94EB0202
:10068000882391F4E3E0F0E0EE0FFF1FEE0FFF1F71
:10069000EC0FFD1FEC59FF4F108184E4602F0E9486
:1006A000EB028823D1F30BC084E4612F41E00E9468
:1006B00058022196C430D10509F0B6CF1FEF812F23
:1006C000DF91CF911F910F910895FF920F931F9388
:1006D000DF93CF9300D00F92CDB7DEB7182F482FFE
:1006E000441F4427441F82E067E00E942401877072
:1006F0009981987F982B9983412F429546954695ED
:10070000417082E066E00E9424018770880F880FA4
:10071000880F9981977C982B9983412F4295469514
:10072000417082E065E00E94240197E0F92EF822F2
:100730008295880F880F807C99819F73982B99836D
:100740009F2D969596958A818E7F892B8A83412F3E
:100750004295417082E064E00E9424018770880F16
:100760009A81917F982B9A83412F4695469546957D
:10077000417082E063E00E94240187708295807F4F
:100780009A819F78982B9A83412F46954695417080
:1007900082E062E00E942401082F07708795882775
:1007A00087959A819F77982B9A83902F96958B8126
:1007B0008C7F892B8B83412F4695417082E061E0CD
:1007C0000E9424018770880F880F9B81937E982B4D
:1007D0009B83117082E060E0412F0E94240182958A
:1007E000880F807E9B819F71982B89818F7351F434
:1007F000FF2041F48A818E7729F4002319F4892F90
:100800008C7F09F081E00F900F900F90CF91DF91D6
:100810001F910F91FF9008950F931F93082F80E071
:1008200062E041E00E94240110E0882309F411E015
:1008300080E061E040E00E942401882309F41F5F0A
:10084000802F0E946503882309F41F5F80E060E029
:1008500041E00E942401882309F41F5F80E060E0EA
:1008600040E00E942401882311F091E006C090E04E
:10087000143009F491E081E09827892F1F910F919E
:100880000895AF92BF92CF92DF92EF92FF920F93B3
:100890001F93DF93CF93CDB7DEB764970FB6F8946D
:1008A000DEBF0FBECDBF6B017C01611571058105F7
:1008B000910521F480E30E940C0434C000E05E0145
:1008C0000894A11CB11CC701B6012AE030E040E049
:1008D00050E00E94DE07162FC701B6012AE030E083
:1008E00040E050E00E94DE07C901DA016C017D01A1
:1008F000F501E00FF11D105D10830F5FC114D104ED
:10090000E104F10401F708C00150F701E00FF11D07
:1009100080810E940C0404C07E010894E11CF11C3B
:10092000002391F764960FB6F894DEBF0FBECDBFDB
:10093000CF91DF911F910F91FF90EF90DF90CF90BB
:10094000BF90AF9008951F93CF93DF93EC0110E019
:1009500003C00E940C041F5FFE01E10FF11D8081A6
:100960008823B9F781E0DF91CF911F9108950F930C
:100970001F93082F80E062E040E00E94240110E015
:10098000882309F411E080E061E040E00E94240146
:10099000882309F41F5F802F0E946503882309F4D0
:1009A0001F5F80E060E041E00E942401882309F499
:1009B0001F5F80E060E040E00E942401882309F48A
:1009C0001F5F80E0143009F081E01F910F910895BE
:1009D000662329F0613011F080E001C0805C80580E
:1009E0000E94B704089581E00E94B70408951F9300
:1009F00080E062E041E00E94BA0010E0882309F440
:100A000011E080E061E041E00E94BA00882309F42F
:100A10001F5F80E060E041E00E94BA00882309F493
:100A20001F5F82E067E041E00E94BA00882309F47A
:100A30001F5F82E066E041E00E94BA00882309F46B
:100A40001F5F82E065E041E00E94BA00882309F45C
:100A50001F5F82E064E041E00E94BA00882309F44D
:100A60001F5F82E063E041E00E94BA00882309F43E
:100A70001F5F82E062E041E00E94BA00882309F42F
:100A80001F5F82E061E041E00E94BA00882309F420
:100A90001F5F82E060E041E00E94BA00882309F411
:100AA0001F5F8EE292E20197F1F788E30E94B7049C
:100AB000882309F41F5F8AEF90E00197F1F78FE038
:100AC0000E94B704882309F41F5F8AEF90E0019722
:100AD000F1F781E00E94B704882309F41F5F84EFD7
:100AE00091E00197F1F780E00E94B704882311F0AC
:100AF00091E006C090E01E3009F491E081E0982773
:100B0000892F1F91089590E080538A3008F491E076
:100B1000892F0895CF92DF92EF92FF920F931F9348
:100B20006A017B018F3219F1803328F48B3251F046
:100B30008D3219F40CC0883589F000E010E020E017
:100B400030E01FC0040F151F261F371F1AC0DB011E
:100B5000CA01801B910BA20BB30B11C0C901B801D4
:100B6000A70196010E94BF078B019C010AC0CB011F
:100B7000BA01A90198010E94DE07C901DA018C01BE
:100B80009D01B801C9011F910F91FF90EF90DF9077
:100B9000CF9008958F3299F0883589F08B3211F01B
:100BA0008D3269F46F3219F480E090E0089590E09E
:100BB000683509F491E081E09827892F089581E054
:100BC00008952F923F924F925F926F927F928F92F1
:100BD0009F92AF92BF92CF92DF92EF92FF920F93CC
:100BE0001F93DF93CF93CDB7DEB7A3970FB6F894DB
:100BF000DEBF0FBECDBFFE01319620E2DF011D92A8
:100C00002A95E9F79AA389A3AA24BB246501222483
:100C10003324210166247724430170C08BA18053C3
:100C20008A30B8F4C201B1012AE030E040E050E07F
:100C30000E94BF071B012C01BBA18B2F90E0C09726
:100C4000AA2797FDA095BA2F280E391E4A1E5B1EB3
:100C500050C0EBA1E032C1F4F501EE0FFF1FEE0F23
:100C6000FF1F81E090E08C0F9D1FE80FF91F20828D
:100C70003182428253820894A11CB11CC11CD11C38
:100C800022243324210135C00894A108B108C108E9
:100C9000D1080894A108B108C108D10875010894C9
:100CA000A11CB11CC11CD11CEE0CFF1CEE0CFF1CC6
:100CB000A1E0B0E0AC0FBD1FEA0EFB1EF7014081C2
:100CC000518162817381F501EE0FFF1FEE0FFF1F4F
:100CD000EA0FFB1F00811181228133818BA10E94C9
:100CE0008A053B014C01D7016D937D938D939C93B5
:100CF0001397E9A1FAA13196FAA3E9A3A9A1BAA190
:100D0000BC91BBA3BB2309F089CFB301C401A39657
:100D10000FB6F894DEBF0FBECDBFCF91DF911F910C
:100D20000F91FF90EF90DF90CF90BF90AF909F908A
:100D30008F907F906F905F904F903F902F9008958D
:100D40004F925F926F927F928F929F92AF92BF92DB
:100D5000CF92DF92EF92FF920F931F93DF93CF9387
:100D6000CDB7DEB767970FB6F894DEBF0FBECDBF25
:100D7000F82EE92E3B018E010E5F1F4FC8010E9425
:100D800020022F2D3E2DC9014C01CC24DD247601FB
:100D900040E2A42EB02E012F2E010894411C511CBC
:100DA0004EC0812F8053F301EC0DFD1DA70196016C
:100DB0002F5F3F4F4F4F5F4F8A3020F41083690100
:100DC0007A013AC0A08269017A018B2D902F0E948E
:100DD0000902892B61F5C2016B2D702F0E9424023C
:100DE0001AC0C2016B2D702F0E94FA01F301EC0DA5
:100DF000FD1D898180838B2D902F0E940902892BF4
:100E000029F4C2016B2D702F0E9424020894C11C8A
:100E1000D11CE11CF11C8B2D902F0E940902892B03
:100E200031F48981612F0E94CA058823D1F6812F70
:100E30006B2D702F0E94ED010894811C911CF40110
:100E40001081112309F0ADCFF301EC0DFD1D80E2FF
:100E50008083870176010894E11CF11C011D111D9E
:100E600032E0832E912C8C0E9D1E5E010894A11CF5
:100E7000B11C0CC0C501B4010E94FA018981F601C0
:100E800080830894E11CF11C011D111DC4010E9406
:100E900009026301CE0CDF1C892B61F3F60110827D
:100EA00067960FB6F894DEBF0FBECDBFCF91DF912E
:100EB0001F910F91FF90EF90DF90CF90BF90AF9078
:100EC0009F908F907F906F905F904F9008958F923A
:100ED0009F92AF92BF92CF92DF92EF92FF920F93C9
:100EE0001F93DF93CF93CDB7DEB7AF970FB6F894CC
:100EF000DEBF0FBECDBF198A0E9441000E94F704D9
:100F000000E0FF246E010894C11CD11C70E2E72EA2
:100F100061E1862E912C8C0E9D1E52E1A52EB12CE6
:100F2000AC0EBD1E01C001E00E940E03182F8F3FC2
:100F3000D9F38D3371F480E061E00E94E804C601CA
:100F4000B5010E94A006C5010E94E1050E9441046E
:100F5000EACF8F3451F4F601E192E815F905E1F793
:100F60000E94F30400E0FF24DFCF0023E1F60E949B
:100F70000C04F601EF0DF11D1083F394D5CF629FA1
:100F8000D001739FF001829FE00DF11D649FE00D81
:100F9000F11D929FF00D839FF00D749FF00D659FE2
:100FA000F00D9927729FB00DE11DF91F639FB00DE1
:100FB000E11DF91FBD01CF0111240895A1E21A2EF0
:100FC000AA1BBB1BFD010DC0AA1FBB1FEE1FFF1FED
:100FD000A217B307E407F50720F0A21BB30BE40B3D
:100FE000F50B661F771F881F991F1A9469F7609584
:100FF0007095809590959B01AC01BD01CF0108953E
:04100000F894FFCF92
:10100400040506073738392F343536583132332D35
:041014004F303D2BF1
:00000001FF
